{
  "transactions": [
    {
      "hash": "0x74355cc6fd89252d8f5940dc4e50a09c802da478d342a9838751522e487a26ab",
      "transactionType": "CALL",
      "contractName": null,
      "contractAddress": "0x52635f45b087c1059b3a997fb089bae5db095b74",
      "function": "createSkill(uint256,address,uint16,string)",
      "arguments": [
        "1000000",
        "0x046aB9D6aC4EA10C42501ad89D9a741115A76Fa9",
        "1500",
        "ipfs://QmTestSkill1"
      ],
      "transaction": {
        "from": "0x046ab9d6ac4ea10c42501ad89d9a741115a76fa9",
        "to": "0x52635f45b087c1059b3a997fb089bae5db095b74",
        "gas": "0x2abec",
        "value": "0x0",
        "input": "0xb5930b6800000000000000000000000000000000000000000000000000000000000f4240000000000000000000000000046ab9d6ac4ea10c42501ad89d9a741115a76fa900000000000000000000000000000000000000000000000000000000000005dc00000000000000000000000000000000000000000000000000000000000000800000000000000000000000000000000000000000000000000000000000000013697066733a2f2f516d54657374536b696c6c3100000000000000000000000000",
        "nonce": "0x8",
        "chainId": "0x14a34"
      },
      "additionalContracts": [],
      "isFixedGasLimit": false
    },
    {
      "hash": "0xd6b3f377ff5e7cd515cb99dbdd3e5cde4a6e9365c5c634044b613474665c3e40",
      "transactionType": "CALL",
      "contractName": null,
      "contractAddress": "0x036cbd53842c5426634e7929541ec2318f3dcf7e",
      "function": "approve(address,uint256)",
      "arguments": [
        "0x52635F45b087c1059B3a997fb089bae5Db095B74",
        "115792089237316195423570985008687907853269984665640564039457584007913129639935"
      ],
      "transaction": {
        "from": "0x046ab9d6ac4ea10c42501ad89d9a741115a76fa9",
        "to": "0x036cbd53842c5426634e7929541ec2318f3dcf7e",
        "gas": "0x13eb1",
        "value": "0x0",
        "input": "0x095ea7b300000000000000000000000052635f45b087c1059b3a997fb089bae5db095b74ffffffffffffffffffffffffffffffffffffffffffffffffffffffffffffffff",
        "nonce": "0x9",
        "chainId": "0x14a34"
      },
      "additionalContracts": [],
      "isFixedGasLimit": false
    },
    {
      "hash": "0x9ca6c576a185b3c9d25a90d552fec8214aafcfe6eb53b05f8dfbf71b89b2e6db",
      "transactionType": "CALL",
      "contractName": null,
      "contractAddress": "0x52635f45b087c1059b3a997fb089bae5db095b74",
      "function": "buySkill(uint256,address)",
      "arguments": [
        "1",
        "0x046aB9D6aC4EA10C42501ad89D9a741115A76Fa9"
      ],
      "transaction": {
        "from": "0x046ab9d6ac4ea10c42501ad89d9a741115a76fa9",
        "to": "0x52635f45b087c1059b3a997fb089bae5db095b74",
        "gas": "0x2e7a7",
        "value": "0x0",
        "input": "0xfb7a1e2a0000000000000000000000000000000000000000000000000000000000000001000000000000000000000000046ab9d6ac4ea10c42501ad89d9a741115a76fa9",
        "nonce": "0xa",
        "chainId": "0x14a34"
      },
      "additionalContracts": [],
      "isFixedGasLimit": false
    }
  ],
  "receipts": [
    {
      "status": "0x1",
      "cumulativeGasUsed": "0x6ba381",
      "logs": [
        {
          "address": "0x52635f45b087c1059b3a997fb089bae5db095b74",
          "topics": [
            "0xc961a096dea4f230e7bdf89efa83ab16d88524878bdf370b103e7da2588c6d76",
            "0x0000000000000000000000000000000000000000000000000000000000000001",
            "0x000000000000000000000000046ab9d6ac4ea10c42501ad89d9a741115a76fa9"
          ],
          "data": "0x00000000000000000000000000000000000000000000000000000000000f424000000000000000000000000000000000000000000000000000000000000005dc00000000000000000000000000000000000000000000000000000000000000600000000000000000000000000000000000000000000000000000000000000013697066733a2f2f516d54657374536b696c6c3100000000000000000000000000",
          "blockHash": "0xc0e0a62900ea74b62af3b39f4df0d89f659e5158a77ad6781584a9cb70f8dd4e",
          "blockNumber": "0x25d149a",
          "blockTimestamp": "0x69cd8814",
          "transactionHash": "0x74355cc6fd89252d8f5940dc4e50a09c802da478d342a9838751522e487a26ab",
          "transactionIndex": "0x2b",
          "logIndex": "0xc3",
          "removed": false
        }
      ],
      "logsBloom": "0x00000000020000000000000000000000000000000000000000000000000000000000000000000000000000000000000000000000000000000000000020040000000080000040000000000000000000000000000000040000000000000008002000000000000000000000000000000000000000000008000000000000000000000000000000000000000000000000000000000000000000000000000000000000000000000000000000000000000000000000000000000000000000000000000000000000000000000000000000000000000000000000000800000000000040000000000000000000000000000000000000000000000000000200000000000000",
      "type": "0x2",
      "transactionHash": "0x74355cc6fd89252d8f5940dc4e50a09c802da478d342a9838751522e487a26ab",
      "transactionIndex": "0x2b",
      "blockHash": "0xc0e0a62900ea74b62af3b39f4df0d89f659e5158a77ad6781584a9cb70f8dd4e",
      "blockNumber": "0x25d149a",
      "gasUsed": "0x1ef26",
      "effectiveGasPrice": "0x5b8d80",
      "blobGasUsed": "0x471c",
      "from": "0x046ab9d6ac4ea10c42501ad89d9a741115a76fa9",
      "to": "0x52635f45b087c1059b3a997fb089bae5db095b74",
      "contractAddress": null,
      "daFootprintGasScalar": "0x94",
      "l1BaseFeeScalar": "0x44d",
      "l1BlobBaseFee": "0x4",
      "l1BlobBaseFeeScalar": "0xa118b",
      "l1Fee": "0x1ce",
      "l1GasPrice": "0x3e",
      "l1GasUsed": "0x7be"
    },
    {
      "status": "0x1",
      "cumulativeGasUsed": "0x6c7d6a",
      "logs": [
        {
          "address": "0x036cbd53842c5426634e7929541ec2318f3dcf7e",
          "topics": [
            "0x8c5be1e5ebec7d5bd14f71427d1e84f3dd0314c0f7b2291e5b200ac8c7c3b925",
            "0x000000000000000000000000046ab9d6ac4ea10c42501ad89d9a741115a76fa9",
            "0x00000000000000000000000052635f45b087c1059b3a997fb089bae5db095b74"
          ],
          "data": "0xffffffffffffffffffffffffffffffffffffffffffffffffffffffffffffffff",
          "blockHash": "0xc0e0a62900ea74b62af3b39f4df0d89f659e5158a77ad6781584a9cb70f8dd4e",
          "blockNumber": "0x25d149a",
          "blockTimestamp": "0x69cd8814",
          "transactionHash": "0xd6b3f377ff5e7cd515cb99dbdd3e5cde4a6e9365c5c634044b613474665c3e40",
          "transactionIndex": "0x2c",
          "logIndex": "0xc4",
          "removed": false
        }
      ],
      "logsBloom": "0x00000000060000000000000000000000000000000000000000000000000000000000000000000000000004000000000000000000000000000000000000200000000000000040000000000000000000100000000000000000000000000000000800000000000000000000000000000000000000000000000000000000000000000000000000000000000000000000000000000000000000000000000000000000020000000000000000000000000000000000000000000000000000000000000000000000000000000000000000000000000000000000000800000000000000000010000000000000000000000020000000000000000200000000000000000000",
      "type": "0x2",
      "transactionHash": "0xd6b3f377ff5e7cd515cb99dbdd3e5cde4a6e9365c5c634044b613474665c3e40",
      "transactionIndex": "0x2c",
      "blockHash": "0xc0e0a62900ea74b62af3b39f4df0d89f659e5158a77ad6781584a9cb70f8dd4e",
      "blockNumber": "0x25d149a",
      "gasUsed": "0xd9e9",
      "effectiveGasPrice": "0x5b8d80",
      "blobGasUsed": "0x39d0",
      "from": "0x046ab9d6ac4ea10c42501ad89d9a741115a76fa9",
      "to": "0x036cbd53842c5426634e7929541ec2318f3dcf7e",
      "contractAddress": null,
      "daFootprintGasScalar": "0x94",
      "l1BaseFeeScalar": "0x44d",
      "l1BlobBaseFee": "0x4",
      "l1BlobBaseFeeScalar": "0xa118b",
      "l1Fee": "0x175",
      "l1GasPrice": "0x3e",
      "l1GasUsed": "0x640"
    },
    {
      "status": "0x1",
      "cumulativeGasUsed": "0x6e97cf",
      "logs": [
        {
          "address": "0x036cbd53842c5426634e7929541ec2318f3dcf7e",
          "topics": [
            "0xddf252ad1be2c89b69c2b068fc378daa952ba7f163c4a11628f55a4df523b3ef",
            "0x000000000000000000000000046ab9d6ac4ea10c42501ad89d9a741115a76fa9",
            "0x00000000000000000000000052635f45b087c1059b3a997fb089bae5db095b74"
          ],
          "data": "0x00000000000000000000000000000000000000000000000000000000000f4240",
          "blockHash": "0xc0e0a62900ea74b62af3b39f4df0d89f659e5158a77ad6781584a9cb70f8dd4e",
          "blockNumber": "0x25d149a",
          "blockTimestamp": "0x69cd8814",
          "transactionHash": "0x9ca6c576a185b3c9d25a90d552fec8214aafcfe6eb53b05f8dfbf71b89b2e6db",
          "transactionIndex": "0x2d",
          "logIndex": "0xc5",
          "removed": false
        },
        {
          "address": "0x036cbd53842c5426634e7929541ec2318f3dcf7e",
          "topics": [
            "0xddf252ad1be2c89b69c2b068fc378daa952ba7f163c4a11628f55a4df523b3ef",
            "0x00000000000000000000000052635f45b087c1059b3a997fb089bae5db095b74",
            "0x000000000000000000000000046ab9d6ac4ea10c42501ad89d9a741115a76fa9"
          ],
          "data": "0x00000000000000000000000000000000000000000000000000000000000cf850",
          "blockHash": "0xc0e0a62900ea74b62af3b39f4df0d89f659e5158a77ad6781584a9cb70f8dd4e",
          "blockNumber": "0x25d149a",
          "blockTimestamp": "0x69cd8814",
          "transactionHash": "0x9ca6c576a185b3c9d25a90d552fec8214aafcfe6eb53b05f8dfbf71b89b2e6db",
          "transactionIndex": "0x2d",
          "logIndex": "0xc6",
          "removed": false
        },
        {
          "address": "0x036cbd53842c5426634e7929541ec2318f3dcf7e",
          "topics": [
            "0xddf252ad1be2c89b69c2b068fc378daa952ba7f163c4a11628f55a4df523b3ef",
            "0x00000000000000000000000052635f45b087c1059b3a997fb089bae5db095b74",
            "0x000000000000000000000000046ab9d6ac4ea10c42501ad89d9a741115a76fa9"
          ],
          "data": "0x00000000000000000000000000000000000000000000000000000000000186a0",
          "blockHash": "0xc0e0a62900ea74b62af3b39f4df0d89f659e5158a77ad6781584a9cb70f8dd4e",
          "blockNumber": "0x25d149a",
          "blockTimestamp": "0x69cd8814",
          "transactionHash": "0x9ca6c576a185b3c9d25a90d552fec8214aafcfe6eb53b05f8dfbf71b89b2e6db",
          "transactionIndex": "0x2d",
          "logIndex": "0xc7",
          "removed": false
        },
        {
          "address": "0x036cbd53842c5426634e7929541ec2318f3dcf7e",
          "topics": [
            "0xddf252ad1be2c89b69c2b068fc378daa952ba7f163c4a11628f55a4df523b3ef",
            "0x00000000000000000000000052635f45b087c1059b3a997fb089bae5db095b74",
            "0x000000000000000000000000046ab9d6ac4ea10c42501ad89d9a741115a76fa9"
          ],
          "data": "0x000000000000000000000000000000000000000000000000000000000000c350",
          "blockHash": "0xc0e0a62900ea74b62af3b39f4df0d89f659e5158a77ad6781584a9cb70f8dd4e",
          "blockNumber": "0x25d149a",
          "blockTimestamp": "0x69cd8814",
          "transactionHash": "0x9ca6c576a185b3c9d25a90d552fec8214aafcfe6eb53b05f8dfbf71b89b2e6db",
          "transactionIndex": "0x2d",
          "logIndex": "0xc8",
          "removed": false
        },
        {
          "address": "0x52635f45b087c1059b3a997fb089bae5db095b74",
          "topics": [
            "0xc3d58168c5ae7397731d063d5bbf3d657854427343f4c083240f7aacaa2d0f62",
            "0x000000000000000000000000046ab9d6ac4ea10c42501ad89d9a741115a76fa9",
            "0x0000000000000000000000000000000000000000000000000000000000000000",
            "0x000000000000000000000000046ab9d6ac4ea10c42501ad89d9a741115a76fa9"
          ],
          "data": "0x00000000000000000000000000000000000000000000000000000000000000010000000000000000000000000000000000000000000000000000000000000001",
          "blockHash": "0xc0e0a62900ea74b62af3b39f4df0d89f659e5158a77ad6781584a9cb70f8dd4e",
          "blockNumber": "0x25d149a",
          "blockTimestamp": "0x69cd8814",
          "transactionHash": "0x9ca6c576a185b3c9d25a90d552fec8214aafcfe6eb53b05f8dfbf71b89b2e6db",
          "transactionIndex": "0x2d",
          "logIndex": "0xc9",
          "removed": false
        },
        {
          "address": "0x52635f45b087c1059b3a997fb089bae5db095b74",
          "topics": [
            "0x9e1a0041d2e12140805fdda9ee2274386bfd465ea3614f2cc83c336a35bda853",
            "0x0000000000000000000000000000000000000000000000000000000000000001",
            "0x000000000000000000000000046ab9d6ac4ea10c42501ad89d9a741115a76fa9",
            "0x000000000000000000000000046ab9d6ac4ea10c42501ad89d9a741115a76fa9"
          ],
          "data": "0x00000000000000000000000000000000000000000000000000000000000f424000000000000000000000000000000000000000000000000000000000000cf85000000000000000000000000000000000000000000000000000000000000186a0000000000000000000000000000000000000000000000000000000000000c350",
          "blockHash": "0xc0e0a62900ea74b62af3b39f4df0d89f659e5158a77ad6781584a9cb70f8dd4e",
          "blockNumber": "0x25d149a",
          "blockTimestamp": "0x69cd8814",
          "transactionHash": "0x9ca6c576a185b3c9d25a90d552fec8214aafcfe6eb53b05f8dfbf71b89b2e6db",
          "transactionIndex": "0x2d",
          "logIndex": "0xca",
          "removed": false
        }
      ],
      "logsBloom": "0x00000000060000000000000000000000000000000000000000000000000000000000000000000000000004000000000000000000000000000000000020042000000000000040000000000008000000100000000000040000000000000008000800000000020000000000000000000800000000000008000000000010000000000000000000000000000000000000000000000000000000000000000000000000000000000000000000000000000000000000000000000000000000000000000000000002000000000000000000000000000002000008000800000000000060000200000000000000000080000020000000000000000200000000080000000000",
      "type": "0x2",
      "transactionHash": "0x9ca6c576a185b3c9d25a90d552fec8214aafcfe6eb53b05f8dfbf71b89b2e6db",
      "transactionIndex": "0x2d",
      "blockHash": "0xc0e0a62900ea74b62af3b39f4df0d89f659e5158a77ad6781584a9cb70f8dd4e",
      "blockNumber": "0x25d149a",
      "gasUsed": "0x21a65",
      "effectiveGasPrice": "0x5b8d80",
      "blobGasUsed": "0x39d0",
      "from": "0x046ab9d6ac4ea10c42501ad89d9a741115a76fa9",
      "to": "0x52635f45b087c1059b3a997fb089bae5db095b74",
      "contractAddress": null,
      "daFootprintGasScalar": "0x94",
      "l1BaseFeeScalar": "0x44d",
      "l1BlobBaseFee": "0x4",
      "l1BlobBaseFeeScalar": "0xa118b",
      "l1Fee": "0x175",
      "l1GasPrice": "0x3e",
      "l1GasUsed": "0x640"
    }
  ],
  "libraries": [],
  "pending": [],
  "returns": {},
  "timestamp": 1775077396,
  "chain": 84532,
  "commit": "db0647c"
}